:020000040800F2
:10000000B00D00200501000849130008630F000827
:10001000E51100083D0A0008EB240008000000007C
:10002000000000000000000000000000091B0008A4
:100030000D0D000800000000B9190008F51B0008AC
:100040001F0100081F0100081F0100081F01000810
:100050001F0100081F0100081F0100081F01000800
:100060001F0100081F0100081F0100081F010008F0
:100070001F0100081F0100081F0100081F010008E0
:100080001F0100081F0100081F0100081F010008D0
:100090001F0100081F0100081F0100081F010008C0
:1000A0001F0100081F0100081F0100081F010008B0
:1000B0001F010008351D0008A51D00081F010008CC
:1000C0001F0100081F0100081F0100081F01000890
:1000D0001F010008312000081F010008AD210008A1
:1000E0001F0100081F0100081F010008DFF810D0E1
:1000F00000F0E4FA00480047ED300008AFF300805C
:10010000B00D00200648804706480047FEE7FEE79E
:10011000FEE7FEE7FEE7FEE7FEE7FEE7FEE7FEE7B7
:100120000D1C0008ED000008421C10F8011B0029FE
:10013000FBD1801A704710B5002200E0521C835C8E
:100140008C5CA34201D1002BF8D1D8B2E1B2401AA5
:1001500010BD2DE9FE4F804681EA0300C00F0C461A
:10016000009021F0004123F00045B8EB0200A941C6
:1001700005D24046214690461C460B46024623F0D7
:100180000040104347D0270DC7F30A00C3F30A51BC
:100190000290401A019040286BDAC3F3130040F438
:1001A000801B0098924620B10023D2EB030A63EB38
:1001B0000B0B01985946C0F14002504600F0D7F9A8
:1001C00006460D4650465946019A00F0EFF910EBED
:1001D00008006141002487EA115284EAE7731A4358
:1001E00040D0009A62B3019A012A4FEA075215DC07
:1001F000001B61EB02014FF0004202EA0752CDE919
:100200000042001C41F5801132462B4600F0EFF908
:1002100003B0BDE8F08F40462146F9E7001B61EBD3
:100220000201001C41F5801300185B412018A2F563
:10023000001747EB030140EAD570B6196D4111E094
:100240006D084FEA360645EAC0754FEA0752001BB3
:1002500061EB0201001C41F5801149084FEA3000B2
:100260000019514132462B4603B0BDE8F04F00F073
:10027000AFB90098012240000023D0EB020263EBEB
:10028000E073009821464FEAE074B8EB000061EBA0
:100290000401E9E783F000435BE781F0004158E7A0
:1002A0002DE9FE4F81EA030404F0004421F00041EF
:1002B00000944FF0000B23F0004350EA01045ED09D
:1002C00052EA03045BD0C3F30A54C1F30A552C4429
:1002D000A4F2F3340194A0FB0254C1F3130141F4DE
:1002E0008011C3F3130343F4801301FB024400FBAA
:1002F000034E840A970A44EA815447EA8357A4FBD1
:10030000076802958D0A05FB07854FEA932C04FBCD
:100310000C542705029D4FEA065847EA1637B5EBFD
:1003200008056EEB070C870E920E47EA811742EA2A
:100330008312A7FB0201B6EB0B0164EB00042B0D4B
:1003400043EA0C335E1844EB1C50DA465146E7FB97
:100350000201C5F313044FEA0B3343EA14534FEA87
:100360000432019C43EA0603A4F10C040294009CAD
:10037000CDE900B400F03BF903B0BDE8F08F0020F8
:100380000146F9E72DE9F04D81EA030404F0004B42
:1003900021F0004514464FF0000A23F0004150EAD6
:1003A000050220D054EA01021DD0C5F30A570246C7
:1003B000C5F31303C1F31300C1F30A5640F48015CB
:1003C00043F48013A7EB0608101BD64608F2FD384D
:1003D00073EB050002D308F1010801E092185B41BC
:1003E000B8F1000F03DA00200146BDE8F08D0020CF
:1003F0004FF48011064684460EE0171B73EB050789
:1004000005D3121B63EB050306434CEA010C4908B4
:100410004FEA300092185B4150EA0107EDD152EAF1
:10042000030012D082EA040083EA0501084305D0E4
:10043000101BAB4106D20122002306E000224FF040
:10044000004302E06FF0010253101AEB06004CEB80
:10045000085110EB0A0041EB0B01BDE8F04D00F034
:10046000B7B80EB540F2334102910021CDE9001139
:100470000A460B4600F0BBF803B000BDC1F30A52B8
:1004800010B5C1F3130140F2FF3341F480119A42D9
:1004900001DA002010BD40F233439A42A2F2334207
:1004A00003DC524200F072F810BD904010BD000015
:1004B00030B5041E71F1000404DB4FF000444042EB
:1004C00064EB0101141E73F1000405DB1C464FF0C0
:1004D0000043524263EB0403994208BF904230BD8F
:1004E00030B50B46014600202022012409E021FA04
:1004F00002F59D4205D303FA02F5491B04FA02F501
:100500002844151EA2F10102F1DC30BD2DE9F05F97
:100510000546002092469B46884606468146402472
:100520001BE0284641464746224600F02FF8534636
:100530005A46C01A914110D311461846224600F07F
:1005400016F82D1A67EB01084F46224601200021BC
:1005500000F00DF817EB00094E41201EA4F1010434
:10056000DFDC484631462A464346BDE8F09F202A54
:1005700004DB203A00FA02F1002070479140C2F1FA
:10058000200320FA03F3194390407047202A04DB2C
:10059000203A21FA02F00021704721FA02F3D040FC
:1005A000C2F120029140084319467047202A06DB19
:1005B000CB17203A41FA02F043EAE07306E041FA31
:1005C00002F3D040C2F1200291400843194670471F
:1005D00010B5141E73F1000408DA401C41F100014B
:1005E00092185B411A4301D120F0010010BD2DE9A2
:1005F000F04D92469B4611B1B1FA81F202E0B0FA99
:1006000080F220329046FFF7B2FF04460F4640EAE0
:100610000A0041EA0B0153465A46084313D01146DB
:1006200053EA010019D0C8F140025046FFF7AEFF6F
:1006300005460E46504659464246FFF798FF084386
:1006400005D0012004E020463946BDE8F08D0020A9
:10065000054346EAE0762C4337430A986305E40AEB
:10066000A0EB08000022FD0A44EA47540A3002D5F4
:1006700000200146E9E7010510196941DDE9084557
:1006800000196941BDE8F04DA2E7C1F30A52C1F378
:10069000130140F2FF3341F480119A4202DA002044
:1006A0000146704740F233439A42A2F2334202DCE1
:1006B0005242FFF76BBFFFF75ABF0000064C074DD1
:1006C00006E0E06840F0010394E807009847103422
:1006D000AC42F6D3FFF70EFDCC3C0008EC3C000822
:1006E00010B50446E4B100200E4908700EA2112195
:1006F000312000F0CDFF0F48008828280EDA0E4880
:100700000078322803DA012000F06EFD08E00A4884
:1007100000784B2804DD00F07EFD01E000F07BFD59
:1007200010BD00001B000020D7D4B6AFC4A3CABDC3
:1007300000000000140000201900002021B1826890
:1007400042F00102826003E0826822F001028260CE
:10075000704721B1826842F48072826003E082684F
:1007600022F4807282607047014600208A6802F09D
:1007700004020AB1012000E0002070470146002079
:100780008A6802F008020AB1012000E000207047E8
:1007900030B502460020002350680F4C20400D79F0
:1007A0000C6844EA05242043506090680B4C2040BC
:1007B000D1E902542C434D7944EA4504204390602A
:1007C000D06A20F470000C7C641EE4B2234340EA3B
:1007D0000350D06230BD0000FFFEF0FFFDF7F1FFD7
:1007E000F0B504460D4600200021092D11DDE0681A
:1007F000A5F10A0606EB4607072606FA07F1884325
:10080000A5F10A0606EB460603FA06F10843E06086
:100810000CE0206905EB4507072606FA07F1884337
:1008200005EB450603FA06F108432061072A0FDAB3
:10083000606B561E06EB86071F2606FA07F18843F3
:10084000561E06EB860605FA06F10843606322E0B1
:100850000D2A0FDA206BD61F06EB86071F2606FA35
:1008600007F18843D61F06EB860605FA06F1084312
:10087000206310E0E06AA2F10D0606EB86071F2652
:1008800006FA07F18843A2F10D0606EB860605FA83
:1008900006F10843E062F0BD816841F00801816023
:1008A000704721B1826842F4A002826003E082684E
:1008B00022F4A00282607047816841F004018160E7
:1008C000704710B500F050FB10BD70B5044600F045
:1008D00003FDA02000F0EBFC00F0B4FC204600F08B
:1008E000E6FC00F0AFFC00F0F7FCA12000F0DFFC1C
:1008F00000F0A8FC00F0B5FC0546012000F0CBFCA0
:1009000000F0F8FC284670BD70B505460C4600F0B6
:10091000E3FCA02000F0CBFC00F094FC284600F0A3
:10092000C6FC00F08FFC204600F0C1FC00F08AFC01
:1009300000F0E0FC70BD000000B591B0012148025C
:1009400001F068F80121042001F064F80121084653
:1009500001F040F84FF4004001F030F800208DF82D
:1009600043000820ADF8400003208DF8420010A994
:100970002E4800F059FA0523012203212C48FFF7E5
:100980002FFF00200B9001208DF8310000200E90E9
:100990004FF460200D9002208DF83C0001208DF86E
:1009A00030000BA92248FFF7F3FE21484C3000909D
:1009B00080150690002004901E4801904FF480603E
:1009C00007908020059000200290022003902020B4
:1009D000089000200A904FF480500990694616480C
:1009E00000F03AF90121144800F02AF901211048D9
:1009F000FFF7AFFE01210E48FFF7A0FE0C48FFF7FE
:100A00004BFF00BF0A48FFF7B9FE0128FAD008489B
:100A1000FFF752FF00BF0648FFF7A6FE0128FAD0F5
:100A200001210348FFF73DFF11B000BD0008014060
:100A3000002401401C0000200800024000BFFEE727
:100A400010B5002420E00121104800F078FA0128B8
:100A500010D1601CC4B21E2000F059F9642C13DDC3
:100A600000F0E8FA00F0F6FA00F004FB00F012FBE8
:100A7000012010BD00F0E6FA00F0F4FA00F002FBED
:100A800000F012FB0020F4E7DDE700000008014061
:100A900010B50024002000F029F804E0601CC4B266
:100AA000012000F040F910210F4800F048FA08B189
:100AB000642CF3DB642C01DB012010BD002404E076
:100AC000601CC4B2012000F02EF91021064800F08D
:100AD00036FA08B9642CF3DB642C01DB0120ECE767
:100AE00000240020E9E700000008014038B5044672
:100AF00044B110208DF80300ADF8000003208DF8FC
:100B0000020005E004208DF803001020ADF800007D
:100B10006946024800F088F938BD0000000801402D
:100B200010B5002404E0601CC4B2012000F0FBF802
:100B30001021104800F003FA08B1642CF3DB002404
:100B400004E0601CC4B2012000F0EDF81021094857
:100B500000F0F5F908B9642CF3DB282000F0E3F885
:100B60001021044800F0EBF908B1012010BD00206D
:100B7000FCE700000008014070B5002508E04FF6D2
:100B8000FF7000EA4404FFF7CBFF0443681C85B202
:100B9000082DF4DBE0B270BD7CB505460E4600F0D2
:100BA00027F8FFF775FFF8B9002405E0FFF7E4FF29
:100BB0000DF80400601CC4B2052CF7DB9DF80000A2
:100BC0009DF8011008449DF8021008449DF8031098
:100BD00008449DF80410884208D19DF80000307048
:100BE0009DF80200287001E001207CBD0020FCE798
:100BF00010B50120FFF77AFF1021074800F0A8F98F
:100C0000142000F084F81021034800F0A3F9142008
:100C100000F089F810BD00000008014008B5102060
:100C20008DF80300ADF8000003208DF8020069463E
:100C3000024800F0F9F8FFF7DBFF08BD00080140AB
:100C400021B1026842F00102026004E002684FF63E
:100C5000FE731A400260704710B50022026847F622
:100C6000F0739A430C6A8B6823430C6923434C69E5
:100C700023438C692343CC6923434C6A23438C6A06
:100C800023431A430260CB6843600B6883604B6860
:100C9000C36010BD10B50D4801880DA002F07CFAAC
:100CA0000E4801780EA002F077FA1048007801286B
:100CB00003D10FA002F070FA06E010480078012876
:100CC00002D10FA002F068FA10BD0000140000204D
:100CD0004C696768743A25640D0A00001900002009
:100CE0004448543A25640D0A000000001A00002010
:100CF000D7D4B6AFC4A3CABD0D0A00001B000020A4
:100D0000CAD6B6AFC4A3CABD0D0A0000704700B56D
:100D1000034603E04FF47A7000F005F8181EA3F1C3
:100D20000103F7D100BD00EBC001C9004FF0E02284
:100D30005161002191610521116100BF4FF0E02157
:100D4000096901F480310029F8D004214FF0E02234
:100D500011617047002123498279002A3AD00A465E
:100D6000126803689A430B461A600A1D12680368EA
:100D70009A430B1D1A60027911440A6803681A43EA
:100D80000A60184A0832126803689A43154B083300
:100D90001A601A1D126803689A43124B0C331A60CA
:100DA0004279102A0ED11A1F126803681A430D4B9C
:100DB00008331A601A1D126803681A43094B0C3372
:100DC0001A600DE00749427911440A6803681A4322
:100DD0000A6005E0027911440A6803689A430A60D0
:100DE000704700000004014030B500228B071C0F43
:100DF0000F2303FA04F20B4B8C1053F82430934367
:100E0000084C8D1044F8253023468C1053F82430BC
:100E10008C07240F00FA04F42343024C8D1044F88D
:100E2000253030BD080001402DE9F0410246002583
:100E30000026002000230024002791F803C00CF0B6
:100E40000F0591F803C00CF0100CBCF1000F03D09B
:100E500091F802C04CEA050591F800C0BCF1000F02
:100E600031D0146800202BE04FF0010C0CFA00F395
:100E7000B1F800C00CEA03069E4220D183004FF077
:100E80000F0C0CFA03F7BC4305FA03FC4CEA04040C
:100E900091F803C0BCF1280F06D14FF0010C0CFAF9
:100EA00000FCC2F814C00AE091F803C0BCF1480F7E
:100EB00005D14FF0010C0CFA00FCC2F810C0401C28
:100EC0000828D1D31460B1F800C0BCF1FF0F34DDA5
:100ED000546800202EE000F1080C4FF0010808FAD9
:100EE0000CF3B1F800C00CEA03069E4221D1830046
:100EF0004FF00F0C0CFA03F7BC4305FA03FC4CEA65
:100F0000040491F803C0BCF1280F05D100F1080CCE
:100F100008FA0CF8C2F8148091F803C0BCF1480F2D
:100F200007D100F1080C4FF0010808FA0CF8C2F8DC
:100F30001080401C0828CED35460BDE8F0810246E2
:100F4000002093680B400BB1012000E000207047A7
:100F500041617047016170470AB1016100E0416180
:100F6000704700BFFEE7000008B50121082000F02F
:100F700051FD14208DF80300C020ADF800000320BF
:100F80008DF8020069460448FFF74EFFC021024871
:100F9000FFF7E0FF08BD0000000C014008B501218B
:100FA0000C2000F037FD48208DF803000320ADF839
:100FB00000008DF8020069460648FFF735FF28203B
:100FC0008DF803000120ADF8000069460248FFF7E4
:100FD0002BFF08BD000C01400008014010B50024A3
:100FE00001211348FFF7ABFF68B91420FFF78FFE0C
:100FF00000BF01210E48FFF7A2FF0028F9D01420FE
:10100000FFF785FE012402210948FFF798FF68B920
:101010001420FFF77CFE00BF02210548FFF78FFF79
:101020000028F9D01420FFF772FE0224204610BDDC
:10103000000C014010B520210148FFF78BFF10BDC7
:101040000008014010B520210148FFF781FF10BDC5
:101050000008014010B540210148FFF77BFF10BD9B
:101060000008014010B540210148FFF771FF10BD95
:101070000008014010B580210148FFF76BFF10BD4B
:101080000008014010B580210148FFF761FF10BD45
:101090000008014010B54FF480710248FFF75AFF75
:1010A00010BD0000000C014010B54FF480710248E3
:1010B000FFF74EFF10BD0000000C014008B50121F4
:1010C0000C2000F0A7FC10208DF80300E020ADF804
:1010D000000003208DF8020069460648FFF7A4FED1
:1010E0004FF48070ADF8000069460348FFF79CFE9E
:1010F00008BD000000080140000C01402DE9F05F30
:101100001E490888FFF7ADF9804600221C4BFFF707
:1011100039F9064600221B4BFFF7C2F804460022AD
:10112000184BFFF7BAF88246FFF7A8F9164908806E
:1011300008460088192802DDFFF784FF01E0FFF769
:1011400079FF11480088322802DDFFF78BFF01E0AC
:10115000FFF780FF0C4800884B2802DDFFF792FF65
:1011600001E0FFF787FF084800885A2802DDFFF7F3
:101170009BFF01E0FFF78EFFBDE8F09F1C00002001
:101180000000B040000059401400002070B5044633
:10119000E4B100200E490870FFF720FF05460DA2BC
:1011A0001021312000F074FA012D02D1012000F04D
:1011B0001BF8022D01D100F02EF8094800881428F0
:1011C00003DA012002490870002400BF70BD00004E
:1011D0001A000020CAD6B6AFC4A3CABD00000000E2
:1011E0001400002000BFFEE710B50446012C02D019
:1011F000022C0ED106E0642000F0B4FB642000F065
:10120000B9FB06E0642000F0B5FB642000F0AAFB07
:1012100000BF00BF10BD10B5002000F0A3FB0020F0
:1012200000F0A8FB10BD000010B580210448FFF7B6
:1012300086FE04460A20FFF776FD204610BD00001A
:10124000000C014010B5012000F070F8012000F002
:101250005FF8FFF7E9FF0446002000F059F8204648
:1012600010BD70B50025012000F060F800240EE0EC
:10127000012000F04DF8FFF7D7FF012802D18020B0
:1012800020410543002000F043F8601CC4B2082C44
:10129000EEDB284670BD10B50446204600F046F847
:1012A000012000F035F8002000F032F810BD70B5D4
:1012B000054600240DE08021214101EA050000F0EF
:1012C00035F8012000F024F8002000F021F8601C1F
:1012D000C4B2082CEFDB70BD10B5012000F026F879
:1012E000012000F015F8002000F020F8002000F0A8
:1012F0000FF810BD10B5002000F00AF8002000F033
:1013000015F8012000F004F8012000F00FF810BDDE
:1013100010B50446224640210348FFF71DFE0A206F
:10132000FFF701FD10BD0000000C014010B50446A0
:10133000224680210348FFF70FFE0A20FFF7F3FC47
:1013400010BD0000000C01407047000070B5002186
:1013500000230F22C47804B3154C246804F4E0641D
:10136000C4F5E064210AC1F10403CA40447804FAD8
:1013700003F184781440214309010E4C0678A155ED
:10138000047804F01F050124AC4005786D11AD0010
:1013900005F1E025C5F8004109E0047804F01F05D7
:1013A0000124AC40044D0678761145F8264070BD06
:1013B0000CED00E000E400E080E100E002490143C0
:1013C000024A1160704700000000FA050CED00E0D1
:1013D00000200CE0002106E00022064B03EBC013C6
:1013E0005A544A1CD1B28029F6DB421CD0B20828DC
:1013F000F0DB7047000100202DE9F04304460D4664
:1014000016461F46284638E0224631E0002A2DDBEA
:101410007F2A2BDC002829DB3F2827DC4FEAE07CF1
:1014200000EB5C7C4FEAEC0CDFF8588008EBCC1C3E
:101430001CF802C003464FEAE07800EB58784FEA08
:10144000E808A0EBC8094FF0010808FA09F82CEAEF
:10145000080C01464FEAE07800EB58784FEAE808BC
:10146000DFF8209009EBC81808F802C0511C0AB236
:10147000A1199142CADC411C08B2E9198142C3DCBE
:10148000BDE8F0830001002038B5002406E0002507
:1014900000E06D1CB5F57A7FFBD3641CB4F57A7F50
:1014A000F5D30121042000F0B5FA0121082000F055
:1014B000B1FA10208DF8030003208DF802004FF4DC
:1014C0008050ADF8000069461948FFF7ADFC4FF4B5
:1014D0000050ADF8000069461548FFF7A5FC4FF431
:1014E0008040ADF8000069461148FFF79DFC4FF4BD
:1014F0000040ADF8000069460D48FFF795FC4FF439
:101500008070ADF8000069460A48FFF78DFC0020A6
:1015100000F0D2F9012000F0DBF9012000F0F0F931
:10152000012000F0E1F9012000F0BAF938BD000017
:10153000000C01400008014010B5FFF7A5FFAE20E8
:1015400000F0EAF9D52000F0E7F9802000F0E4F996
:10155000A82000F0E1F93F2000F0DEF9D32000F0F0
:10156000DBF9002000F0D8F9402000F0D5F9A120E7
:1015700000F0D2F9C82000F0CFF9DA2000F0CCF961
:10158000122000F0C9F9812000F0C6F9CF2000F048
:10159000C3F9D92000F0C0F9F12000F0BDF9DB203B
:1015A00000F0BAF9302000F0B7F9A42000F0B4F947
:1015B000A62000F0B1F98D2000F0AEF9142000F063
:1015C000ABF9AF2000F0A8F9FFF702FF00F054F9E3
:1015D00010BD10B50246012000E050430B1EA1F1E2
:1015E0000101FAD110BD70B50546002411E080213B
:1015F0002141294009B1012100E00021084600F005
:1016000067F9012000F058F9002000F055F9601C3E
:10161000C4B2082CEBDB70BD70B505460C4645F036
:10162000B00000F079F9102141EA141000F074F9CB
:1016300004F00F0000F070F970BD0000F8B5064628
:101640000F4614461D46082D0CD1A4F120000E496A
:1016500001EB00101023082239460090304600F0BC
:1016600067F80FE0062D0DD1A4F1200000EB40003B
:10167000064901EB40000823062239460090304617
:1016800000F056F8F8BD0000E8310008D83700082F
:101690002DE9FC4780468946164600270020019028
:1016A00000253AE0705D01A9C855781CC7B2022F29
:1016B00031DB002700240CE0C4EBC40101EB810105
:1016C000194A881801A9FEF736FD00B90CE0601C24
:1016D000C4B2C4EBC40101EB8101134A881813A101
:1016E000FEF729FD0028E7D100BFC4EBC40000EBE2
:1016F00080000D490844C01C05F1010A0AEBDA71AB
:101700004910491E08EB0111009008B210231A4637
:10171000494600F00DF8681CC5B2705D0028C1D1C3
:1017200000F0AAF8BDE8FC87123A000800000000AB
:101730002DE9FF4F80460E469146DDF834B0002576
:1017400000244A4631464046039BFFF755FE00BF42
:101750005EE0002558E008EB0500002852DB08EBAE
:1017600005007F284EDC3046F11706EB5171C91099
:101770000FB2F11706EB5171C910A6EBC10A002E8A
:1017800005DA781E07B20AF108000FFA80FA381954
:10179000002817DB3819072814DC3819224901EB17
:1017A000C01008EB0501405C04FB09511BF8011057
:1017B00001FA0AF1084339191B4A02EBC11108EB7F
:1017C000050288543819401C00281BDB3819401CBE
:1017D000072817DC3819401C134901EBC01008EB2F
:1017E0000501405C04FB09511BF80110CAF1080215
:1017F000114108433919491C0B4A02EBC11108EB8E
:1018000005028854681CC5B24D45A4DB601CC4B2F7
:101810000399481EC11700EB5171012202EBE1014F
:10182000A14296DCBDE8FF8F000100202DE9F047C2
:101830000646894617461D46DDF82080002417E03D
:10184000281B411E0A20FFF7C4FEB7FBF0F00A2157
:10185000B0FBF1F201FB120000F1300A04FB086159
:1018600008B2434652464946FFF7E8FE601CC4B240
:10187000AC42E5DBBDE8F08710B500240BE00021A9
:101880002046FFF7C9FE054901EBC410802100F096
:1018900052F8601CC4B2082CF1DB10BD000100201E
:1018A00010B5044622464FF480710248FFF754FBFE
:1018B00010BD00000008014010B5044622464FF458
:1018C00080510248FFF748FB10BD0000000C0140AA
:1018D00010B5044622464FF400510248FFF73CFB86
:1018E00010BD0000000C014010B5044622464FF424
:1018F00000410248FFF730FB10BD0000000C014022
:1019000010B5044622464FF480410248FFF724FBFD
:1019100010BD0000000C014010B504460020FFF788
:10192000BFFF0020FFF7E0FF2046FFF75CFE01202D
:10193000FFF7B6FF10BD70B505460E460020FFF755
:10194000AFFF0120FFF7D0FF002404E0285DFFF780
:101950004AFE601CC4B2B442F8DB0120FFF7A0FFCE
:1019600070BD704710B5044621464FF0804000F02E
:101970000BFB10BD704700000A48006840F00400EF
:10198000084908600846006840F002000860064800
:10199000006840F004000449086000BF00BF30BF89
:1019A000704700000070004010ED00E00149086041
:1019B00070470000A0000E42704700000146002062
:1019C000034A506820F440400843506070470000CC
:1019D0000010024029B1064A52690243044B5A6181
:1019E00004E0034A52698243014B5A617047000088
:1019F0000010024029B1064AD2690243044BDA6161
:101A000004E0034AD2698243014BDA617047000067
:101A10000010024029B1064A92690243044B9A61C0
:101A200004E0034A92698243014B9A6170470000C7
:101A30000010024030B500210022002400232D4D6B
:101A40006D6805F00C0121B1042905D0082923D1C6
:101A500005E0294D056022E0274D05601FE0254D7A
:101A60006D6805F47012234D6D6805F4803402250D
:101A700005EB92421CB9214D554305600BE01D4D0D
:101A80006D6805F400351DB11C4D5543056002E03D
:101A9000194D5543056002E0174D056000BF00BFBA
:101AA000144D6D6805F0F0010909154D6B5C056872
:101AB000DD4045600F4D6D6805F4E061090A104D89
:101AC0006B5C4568DD4085600A4D6D6805F46051CA
:101AD000C90A0B4D6B5C4568DD40C560054D6D68FE
:101AE00005F44041890B074D6B5CC568B5FBF3F508
:101AF000056130BD0010024000127A0000093D006F
:101B00000000002010000020704710B500F002F81F
:101B100010BD00000CB50020019000903348006813
:101B200040F480303149086000BF3048006800F45C
:101B3000003000900198401C0190009818B901985D
:101B4000B0F5A06FF1D12948006800F4003010B161
:101B50000120009001E0002000900098012843D16E
:101B60002348006840F010002149086008460068DA
:101B700020F0030008600846006840F0020008609A
:101B80001A48406819494860084640684860084655
:101B9000406840F4806048600846406820F47C104B
:101BA00048600846406840F4E8104860084600680D
:101BB00040F08070086000BF0C48006800F00070C2
:101BC0000028F9D00948406820F003000749486020
:101BD0000846406840F00200486000BF0348406883
:101BE00000F00C000828F9D10CBD000000100240E4
:101BF00000200240704710B501210807FFF7FAFEE8
:101C00000120FFF7D3FEFFF7B7FE10BD10B5134854
:101C1000006840F00100114908600846406810491A
:101C200008400E494860084600680E4908400B49C4
:101C300008600846006820F4802008600846406874
:101C400020F4FE0048604FF41F008860FFF75DFF3E
:101C50004FF000600449086010BD00000010024011
:101C60000000FFF8FFFFF6FE08ED00E01FB50121C0
:101C70000620FFF7BFFE2D4800F024F90020ADF844
:101C80000A00ADF8060040F2E730ADF8080041F672
:101C90001F40ADF8040000208DF80C0001A9234876
:101CA00000F074F90020ADF80A00ADF8060040F22B
:101CB000E730ADF8080041F61F40ADF80400002001
:101CC0008DF80C0001A91A4800F060F901221146B4
:101CD000164800F0A1F801221146154800F09CF8C2
:101CE0001D208DF8000001208DF803008DF8010003
:101CF00000208DF802006846FFF728FB1E208DF8B3
:101D0000000001208DF803008DF8010000208DF8FF
:101D100002006846FFF71AFB0121044800F05FF853
:101D20000121034800F05BF81FBD000000040040E3
:101D30000008004008B50121164800F05CF838B3EF
:101D40000121144800F048F8FFF7D8F908200423CF
:101D500000901148027821214120FFF767FD0820FB
:101D6000042300900D48028831214120FFF75EFDD9
:101D7000FFF782FD0A480068401C094908600846D0
:101D800000680F2804D3FEF785FF0020044908608F
:101D900008BD0000000400401900002014000020CD
:101DA0002400002010B50121084800F024F858B1A3
:101DB0000121064800F010F805480078FEF790FC75
:101DC00004480078FFF7E2F910BD00000008004069
:101DD0001A0000201B000020CA430282704721B174
:101DE000028842F00102028004E002884FF6FE738E
:101DF0001A400280704730B50246002000230024BC
:101E0000158A05EA0103958905EA010413B10CB1AD
:101E1000012000E0002030BD1AB183890B4383818B
:101E200002E083898B4383817047000000B589B04D
:101E300001210846FFF7DEFD01210420FFF7EAFD3E
:101E400018208DF817000220ADF8140003208DF83B
:101E5000160005A91A48FEF7E7FF4FF0804000F092
:101E600031F80020ADF81E00ADF81A006320ADF87F
:101E70001C0040F2CF20ADF8180000208DF82000A3
:101E800006A94FF0804000F081F801A800F072F838
:101E90006020ADF804000020ADF80C000120ADF882
:101EA00006000020ADF80A0001A94FF0804000F0C4
:101EB0000FF801218807FFF792FF09B000BD00006D
:101EC0000008014001894FF6F87211400181704706
:101ED00070B5002400220023058C4FF6EF763540C4
:101EE0000584028C8388048B48F6FF752C404FF6DE
:101EF000FF452C400D884FF6FF7606EA05252C435A
:101F00004FF6DF752A400D8906EA05152A434D88EC
:101F100006EA05152A43154DA84202D0144DA842E1
:101F20001DD14FF67F752A404D894FF6FF7606EAA0
:101F300005152A434FF6BF752A408D8806EA051518
:101F40002A434FF6FF352B404FF2FF752B408D890A
:101F500006EA85052B43CD8906EA85052B43838058
:101F60000483CD880587028470BD0000002C0140E9
:101F7000003401400021018041808180C1800181C5
:101F800041818181C18170470187704700220288A9
:101F90001D4B98420ED01D4B98420BD0B0F1804F94
:101FA00008D01B4B984205D01A4B984202D01A4BCE
:101FB000984204D14FF68F731A404B881A43174B3F
:101FC000984207D0164B984204D04FF6FF431A4070
:101FD000CB881A4302808B8883850B8803850A4B44
:101FE00098420BD0094B984208D00E4B984205D02E
:101FF0000D4B984202D00D4B984201D10B7A0386CB
:102000000123838270470000002C0140003401400E
:102010000004004000080040000C00400010004098
:1020200000140040004001400044014000480140CD
:1020300010B540F22551554800F093F9012874D1AC
:10204000524800F049FAC4B25148008800F40040F8
:1020500058BB4F48008800F4804060B10A2C03D080
:1020600000204B49088020E04948008840F40040A7
:102070004749088019E00D2C06D14548008840F4F6
:1020800080404349088010E041480088C0F30D00BB
:1020900040490C543E480088401C3D490880084691
:1020A0000088C72801DD002008803948008800F436
:1020B0000040002867D037480078492860D135486B
:1020C000407857285CD133488078532858D131481C
:1020D0000079412818D12F488079312808D1012072
:1020E0002D490870084601780A20FEF70DFC0BE028
:1020F00028488079302807D10020274908700846F1
:1021000001780A20FEF700FC224800794D2819D1F9
:1021100020488079312809D10120204908700846DB
:1021200001780B20FEF7F0FB0CE02DE019488079D8
:10213000302807D1002019490870084601780B2083
:10214000FEF7E2FB13480079532819D11148407972
:10215000542815D10F488079422811D10D48C079F3
:1021600059280DD10B48407A312809D10948C07A45
:10217000312805D10AA21121FFF78AFA00F0F4FAFA
:1021800000200349088000BF10BD00000038014056
:102190002C000020380000201A0000201B00002026
:1021A000B4FDBBFAC4A3CABD0000000010B540F2E4
:1021B0002551564800F0D5F8012835D1534800F094
:1021C0008BF9C4B25248008800F4004058BB504814
:1021D000008800F4804060B10A2C03D000204C49F4
:1021E000088020E04A48008840F4004048490880C0
:1021F00019E00D2C06D14648008840F4804044493F
:10220000088010E042480088C0F30D0041490C549A
:102210003F480088401C3E49088008460088C7287F
:1022200001DD0020088000BF3948008800F400402C
:1022300000286AD03748007849285FD1354840786F
:1022400057285BD133488078532857D131480079DB
:10225000412818D12F488079312808D101202E49F2
:102260000870084601780A20FEF74EFB0BE029486B
:102270008079302807D10020274908700846017866
:102280000A20FEF741FB234800794D2818D1214848
:102290008079312808D1012020490870084601784A
:1022A0000B20FEF731FB0BE01A488079302807D16C
:1022B00000201A490870084601780B20FEF724FB1D
:1022C00014480079532819D112484079542815D15F
:1022D00010488079422811D10E48C07959280DD173
:1022E0000C48407A312809D10A48C07A312805D1F2
:1022F0000BA21121FFF7CCF900F036FA05490BA02B
:1023000000F06AFA00200249088010BD0048004031
:1023100032000020000500201A0000201B000020D1
:10232000B4FDBBFAC4A3CABD0000000025730000C1
:1023300021B1828942F40052828104E082894DF603
:10234000FF731A408281704702460020B1F5007F7A
:1023500000D100BF13880B400BB1012000E000202A
:10236000704770B50246002400230025002040F687
:102370006A16B14200D100BFC1F3421501F01F033C
:10238000012606FA03F3012D02D19689334006E0B7
:10239000022D02D1168A334001E0968A33400C1296
:1023A000012606FA04F41688344013B10CB101205A
:1023B00000E0002070BDF0B5034600240026002593
:1023C000002040F66A17B94200D100BF1846C1F399
:1023D000421401F01F06012707FA06F5012C01D16E
:1023E0000C3004E0022C01D1103000E014301AB19E
:1023F00007682F43076002E00768AF430760F0BD3E
:102400002DE9F04786B005460E460024A24600BFDF
:10241000A1460027B08900B100BF2F462C8A4CF698
:10242000FF700440F08804432C82AC894EF6F31010
:102430000440B08831890843718908430443AC8162
:10244000AC8A4FF6FF400440B0890443AC8201A837
:10245000FFF7F0FA1F48874202D1DDF810A001E033
:10246000DDF80CA0A88900F4004040B10AEBCA00D6
:1024700000EB0A1031684900B0FBF1F807E00AEB05
:10248000CA0000EB0A1031688900B0FBF1F8642043
:10249000B8FBF0F004012009642101FB1089A88930
:1024A00000F4004040B1322000EBC900B0FBF1F075
:1024B00000F00700044308E0322000EB091064211B
:1024C000B0FBF1F000F00F0004432C8106B0BDE832
:1024D000F08700000038014001468888C0F30800FA
:1024E0007047C1F308028280704700BFFEE700001A
:1024F00010B586B0044601218804FFF77BFA01215C
:102500000820FFF787FA18208DF817004FF4806035
:10251000ADF8140003208DF8160005A92048FEF739
:1025200083FC48208DF817004FF40060ADF81400CC
:1025300003208DF8160005A91948FEF775FC0194D3
:102540000020ADF810000C20ADF80E000020ADF812
:102550000C00ADF80A00ADF8080001A91148FFF71A
:102560004FFF012240F225510E48FFF724FF4FF4A0
:10257000A060FEF723FF27208DF8000001208DF8D2
:10258000030000208DF8010001208DF8020068464C
:10259000FEF7DCFE01210348FFF7CAFE06B010BDBE
:1025A000000C01400048004010B504462146054893
:1025B000FFF797FF00BF80210248FFF7C5FE002804
:1025C000F9D010BD0048004070B50446002504E075
:1025D000605DFFF7E9FF681CC5B2605D0028F7D1B8
:1025E00070BD000010B586B0044601218803FFF7D6
:1025F00011FA01210420FFF70DFA18208DF81700B9
:102600004FF40070ADF8140003208DF8160005A9F2
:102610002048FEF709FC48208DF817004FF4806031
:10262000ADF8140003208DF8160005A91948FEF72F
:10263000FBFB01940020ADF810000C20ADF80E005B
:102640000020ADF80C00ADF80A00ADF8080001A9B3
:102650001148FFF7D5FE012240F225510E48FFF741
:10266000AAFE4FF4A060FEF7A9FE25208DF8000019
:1026700001208DF8030000208DF8010001208DF865
:1026800002006846FEF762FE01210348FFF750FE94
:1026900006B010BD000801400038014010B510A080
:1026A000FFF792FF4FF47A70FEF731FB0EA0FFF7B1
:1026B0008BFF4FF47A70FEF72AFB0FA211A114A032
:1026C00000F06AFD42F21070FEF721FB16A219A17C
:1026D0001EA000F061FD4FF4FA60FEF718FB10BD7C
:1026E00041540D0A0000000041542B43574D4F4404
:1026F000453D310D0A00000038383838383838394F
:10270000000000005869616F6D69203133000000DE
:1027100041542B43574A41503D222573222C2225F8
:1027200073220D0A00000000313233343536373859
:10273000000000003136393531393036393833321E
:1027400030393638313739360000000041542B41DA
:10275000544B434C445354413D222573222C222593
:1027600073220D0A000000001FB501210520FFF7AC
:1027700051F90120ADF80C0028208DF80F0003A9B5
:102780001448FEF751FB00210846FEF72DFB0120FF
:10279000009000208DF8040008208DF8050001202D
:1027A0008DF806006846FEF7D5FA06208DF8080079
:1027B00002208DF809008DF80A0001208DF80B0029
:1027C00002A8FEF7C3FDFEF73BF908B9FFF713FABD
:1027D0001FBD0000000801400FB4054B10B503A950
:1027E000044A029800F0ECF810BC5DF814FB0000FD
:1027F000D13000083400002037B514460846064B97
:102800006A46214600F0DCF804466946002000F0E4
:102810005AFC20463EBD0000C730000802E008C850
:10282000121F08C1002AFAD170477047002001E04A
:1028300001C1121F002AFBD1704700002DE9FF5F84
:1028400082B00021DDE90430020DDDF840B0034321
:1028500018D044F61050A2F2FF32424315141198DA
:1028600001281FD0A5EB0B00401C5FEA000A4FF0C7
:1028700000064E4FDFF83891B046504615D5CAF1E4
:10288000000413E0119801244AA3012801D16FEA42
:102890000B010298119AC0E90031C0E9024206B06A
:1028A000BDE8F09FCBF10000DFE704460021404A7D
:1028B000491842EB0450CDE9001012E0E00707D0C0
:1028C00032463B4640464946FDF7EAFC804689468B
:1028D00032463B4610461946FDF7E2FC06460F46D7
:1028E0006410002CEAD1DDE90401DDE90023BAF12E
:1028F000000F06DAFDF7D4FC42464B46FDF7D0FC4C
:1029000005E0FDF73FFD42464B46FDF73BFD044623
:102910000E460022284BFDF7CBFD03D84FF0FF30C9
:10292000014607E00022254B20463146FDF711FC09
:10293000FDF7ABFE102409E0002C0ADB0A2200237D
:10294000FDF7E4FD039B30321A55641E50EA010284
:10295000F2D1641C039AC4F111031444119A012AA0
:1029600003D0012208430DD10AE0084304D000201F
:102970004FF0110B119072E7A3EB0B056D1E0DE0EC
:102980005B4504DD4FF0000205F1010504E003DAC8
:102990004FF00002A5F10105002AECD00298119930
:1029A000C0E90231C0E9004579E7000000001440A9
:1029B0000000F03F300000000000F0430000E03F66
:1029C0002DE9FF4F95B09A46884606460025EEE170
:1029D000252877D100242746F94A0121039400E0F5
:1029E000044316F8013F203B01FA03F01042F7D1EF
:1029F00030782A2811D06FF02F033078A0F1300200
:102A0000092A16D8039A44F0020402EB820203EB6F
:102A100042021044761C0390EFE758F8042B03920F
:102A2000002A03DA504244F40054039044F00204B4
:102A3000761C30782E2816D116F8010F44F00404C5
:102A40002A280DD06FF02F023078A0F13003092B27
:102A500009D807EB870302EB4303C718761CF3E79B
:102A600058F8047B761C30786C280FD006DC4C2894
:102A700017D068280DD06A2814D104E0742810D02B
:102A80007A280FD10DE044F400140AE044F48014D5
:102A900001E044F440147278824202D104F58014BB
:102AA000761C761C307866280BD013DC582877D03B
:102AB00009DC002875D04528F6D04628F4D04728F0
:102AC0001AD193E118E0632835D0642879D06528BD
:102AD00012D18BE1702873D008DC6728F1D0692807
:102AE0006FD06E280DD06F2806D1ACE073282CD0A3
:102AF000752874D0782853D05246179990476D1C8A
:102B000054E1C4F30250022809D003280DD0D8F8AC
:102B1000001004280DD00D6008F1040846E1D8F833
:102B20000010EA17C1E90052F6E7D8F800100D804E
:102B3000F2E70D70F0E718F8041B8DF80010002084
:102B40008DF80100EB46012003E058F804BB4FF07C
:102B5000FF3061074FF0000102D40DE009F10101DF
:102B60008946B9420FDA8145F8DB1BF809100029C4
:102B7000F4D108E009F1010189468142FADB1BF832
:102B800009100029F6D103985346A0EB0907214606
:102B90003846179A00F080FA284400EB090507E050
:102BA00044E008E10DE01BF8010B524617999047ED
:102BB000B9F10109F7D2534621463846179AF2E097
:102BC00039E00A21C4F302524FF0000B0091022AAF
:102BD00006D058F8040BC117032A09D00AE023E0F5
:102BE00008F1070020F00702F2E80201904605E034
:102BF00000B2C117042A01D140B2C117002906DA78
:102C00000A460021404261EB02012D2202E022052A
:102C100004D52B228DF80420012203E0E20701D025
:102C20002022F7E7914657E00A2100E010214FF0FB
:102C3000000B00910BE010214FF0000B44F0040456
:102C40000827009103E008204FF0000B0090C4F328
:102C50000252022A05D058F8040B0021032A08D09A
:102C600008E008F1070020F00702F2E802019046B0
:102C700003E080B2042A00D1C0B24FF0000922075D
:102C80002AD53278702A07D0DDF800C08CF0100CFD
:102C90005CEA0B0C05D00EE040228DF804200122E6
:102CA00008E050EA010306D030238DF804308DF897
:102CB000052002229146009B83F0080353EA0B0390
:102CC0000AD150EA010201D1620705D530228DF800
:102CD00004204FF001097F1E3278582A04D039A20F
:102CE0000C920CAA02920BE03BA2F9E75B46009A19
:102CF000FDF70CFC0C9B9B5C029A521E0292137017
:102D000050EA0102F2D1029804A9081A00F1200B3E
:102D1000600702D524F4803400E001275F4502DD1E
:102D2000A7EB0B0000E0002000EB0B0100900398E4
:102D30004944401A0390E00306D453462146179AAB
:102D4000039800F0A9F90544002706E001A85246BF
:102D5000C05D179990476D1C7F1C4F45F6DBE00363
:102D60000CD553462146179A039800F095F905446F
:102D700004E030205246179990476D1C0099481E78
:102D800000900029F5DC08E002980299524600788C
:102D9000491C0291179990476D1CBBF10001ABF1E2
:102DA000010BF1DC5BE100F065F90544761C30783D
:102DB00000287FF40DAE19B02846BDE8F08F000062
:102DC0000928010030313233343536373839616201
:102DD00063646566000000003031323334353637C5
:102DE000383941424344454600000000600700D4A2
:102DF000062708F1070020F00700F0E802238046CC
:102E000003F0004C5FEA0C0001D097A009E0200518
:102E100001D596A005E0E00701D095A001E0AFF252
:102E20004C001390307823F0004365280CD006DC6A
:102E3000452809D046281DD047287FD13BE0662889
:102E400018D067287AD136E00021112F01DB11203C
:102E500000E0781CCDE9000104A90CA8FFF7EEFC06
:102E6000DDE90D010C9A4FF0000B07F101091092FA
:102E700000914EE04FF000400097CDE9011004A909
:102E80000CA8FFF7DBFCDDE90D020C9B0F994FF05E
:102E9000000B91461093009211B9791C00EB0109C7
:102EA000B7EB090003D4C0F1FF3B07F10109A9EB1F
:102EB0000700019042E0012F00DA01270021112FC5
:102EC00001DD112000E03846CDE9000104A90CA87D
:102ED000FFF7B4FCDDE90D010C9A00914FF0000BF7
:102EE000B946109221070FD4009A4A4503DA914659
:102EF00001E0A9F10109B9F1010F05DD109AA9F16D
:102F00000101515C3029F4D0B84202DA10F1040F0B
:102F100003DA0121CDE9011010E0002803DC83442D
:102F2000A9EB000102E0411C494500DD8946A0EB08
:102F30000B00401C01904FF000400290200705D488
:102F40000198484502DB4FF0FF30019000208DF8DA
:102F50004B0002980DF14B07B0F1004F25D0022035
:102F60000C902B200D90029800280CDA4042029021
:102F70002D200D9007E00A210298FDF7B1FA3031BB
:102F8000029007F8011D0C99481E0C900029F2DCF4
:102F900002980028EFD1791E0D980870307800F063
:102FA000200040F0450007F8020D11A8C01BC01D0D
:102FB00002901398007800B1012000EB09010198FC
:102FC00001EBE071029801440398401A401E0390FF
:102FD000E00306D453462146179A039800F05CF8A4
:102FE00005441398007818B15246179990476D1C04
:102FF000E00323D553462146179A039800F04CF876
:1030000005441BE0BBF1000F07DB0098584504DDC9
:103010001098179910F80B0001E0179930205246CC
:10302000904701980BF1010B401E05F1010501903D
:1030300004D12E205246179990476D1CB9F100011A
:10304000A9F10109DEDC05E017F8010B52461799DA
:1030500090476D1C0299481E02900029F4DC5346EB
:103060002146179A03989EE62D0000002B000000D1
:10307000200000002DE9F041044600251E461746B9
:10308000880404D405E039462020B0476D1C641E36
:10309000F9D52846BDE8F0812DE9F0410446002528
:1030A0001E469046C80301D5302700E0202788043B
:1030B00004D505E041463846B0476D1C641EF9D57D
:1030C0002846BDE8F0810A68531C0B6010707047F9
:1030D00000BF054A128802F04002002AF9D0C2B2AD
:1030E000014B1B1D1A80704700380140FDF7E6FFB9
:1030F000FDF754FF4FF4E130FFF774FA4FF4E1307D
:10310000FFF7F6F9FFF7CAFAFDF716FCFEF714FA17
:10311000FEF727FCFEF78AFEFEF7A8FDFDF7D1FBC0
:10312000FDF77CFD0A20FDF7D0FB012801D10F49F6
:1031300008700020FDF7C9FB10B101200C49087090
:103140000CA211210020FEF7A3FA0CA221210020DD
:10315000FEF79EFA0BA231210020FEF799FA03E058
:103160000B490C48FDF718FDFAE700001A00002093
:103170001B000020C4A3CABD00000000CAAAB6C834
:1031800000000000B9E2D5D5C7BFB6C800000000F6
:1031900019000020180000200FB438B505A80090D1
:1031A0000F48009A0499FFF727FB002000900C4875
:1031B000FCF7BAFF85B200240DE000BF40210948AA
:1031C000FFF7C2F80028F9D00548015D0548FFF770
:1031D00088F9601C84B2AC42EFDB38BC5DF814FBAC
:1031E00058070020004800400000000000000000D8
:1031F0000000000000000000000000F800000000D7
:10320000000000333000000000160E00160E000013
:10321000000000000000000040C07840C07840007E
:10322000043F04043F040400007088FC08300000E0
:10323000001820FF211E0000F008F000E018000038
:1032400000211C031E211E0000F0088870000000F1
:103250001E21232419272110000000160E00000053
:103260000000000000000000000000E01804020060
:10327000000000071820400000020418E0000000D1
:103280000040201807000000404080F080404000CF
:103290000202010F01020200000000F00000000025
:1032A0000101011F010101000000000000000000F9
:1032B00000B07000000000000000000000000000EE
:1032C00000010101010101010000000000000000F7
:1032D0000030300000000000000000008060180492
:1032E000006018060100000000E010080810E0006F
:1032F000000F102020100F00001010F80000000038
:103300000020203F2020000000700808088870007E
:1033100000302824222130000030088888483000FE
:103320000018202020110E000000C02010F800001E
:1033300000070424243F240000F8088888080800B7
:103340000019212020110E0000E0108888180000CC
:10335000000F112020110E0000380808C83808009E
:103360000000003F0000000000708808088870001E
:10337000001C222121221C0000E010080810E0009F
:103380000000312222110F00000000C0C000000028
:103390000000003030000000000000C0C00000004D
:1033A000000080B070000000000080402010080085
:1033B000000102040810200040404040404040000E
:1033C00004040404040404000008102040800000E9
:1033D0000020100804020100007048080808F000EE
:1033E0000000003036010000C030C828E810E000BE
:1033F0000718272423140B000000C038E000000049
:10340000203C23020227382008F8888888700000B2
:10341000203F202020110E00C03008080808380086
:10342000071820202010080008F808080810E000FD
:10343000203F202020100F0008F88888E80810009E
:10344000203F20202320180008F88888E808100072
:10345000203F200003000000C030080808380000AA
:1034600007182020221E020008F808000008F808AB
:10347000203F210101213F20000808F80808000032
:103480000020203F2020000000000808F808080065
:10349000C08080807F00000008F888C028180800DD
:1034A000203F20012638200008F808000000000016
:1034B000203F20202020300008F8F800F8F808000D
:1034C000203F003F003F200008F830C00008F80807
:1034D000203F200007183F00E01008080810E00017
:1034E0000F10202020100F0008F808080808F0002E
:1034F000203F210101010000E01008080810E00051
:103500000F18242438504F0008F8888888887000E5
:10351000203F2000030C3020007088080808380085
:103520000038202121221C00180808F8080818007B
:103530000000203F2000000008F808000008F808FC
:10354000001F202020201F000878880000C83808AD
:10355000000007380E010000F80800F80008F80025
:10356000033C0700073C03000818688080681808BF
:1035700020302C03032C30200838C800C83808003D
:103580000000203F2000000010080808C83808008C
:103590002038262120201800000000FE0202020030
:1035A0000000007F40404000000C30C000000000E0
:1035B000000000010638C00000020202FE00000008
:1035C000004040407F000000002010080408102048
:1035D00000000000000000000000000000000000EB
:1035E00080808080808080800002040800000000CD
:1035F00000000000000000000000808080800000CB
:103600000019242222223F2008F8008080000000B8
:10361000003F112020110E0000000080808000007B
:10362000000E112020201100000000808088F8008A
:10363000000E112020103F200000808080800000BC
:10364000001F222222221300008080F08888881820
:103650000020203F2020000000008080808080002B
:10366000006B94949493600008F8008080800000C0
:10367000203F210000203F2000809898000000009B
:103680000020203F202000000000008098980000CB
:1036900000C08080807F000008F8000080808000EB
:1036A000203F24022D302000000808F80000000010
:1036B0000020203F202000008080808080808000CB
:1036C000203F20003F20003F0080800080800000DD
:1036D00000203F2100203F200000808080800000EB
:1036E000001F202020201F0080800080800000001C
:1036F00080FFA12020110E0000000080808080004B
:10370000000E112020A0FF8080808000808080003B
:1037100020203F2120000100000080808080800068
:103720000033242424241900008080E080800000DD
:103730000000001F2020000080800000008080002A
:10374000001F202020103F2080808000008080808B
:1037500000010E300806010080800080008080801B
:103760000F300C030C300F00008080008080800040
:103770000020312E0E31200080808000008080806B
:1037800080818E701806010000808080808080001B
:103790000021302C2221300000000000807C020239
:1037A00000000000003F404000000000FF0000005B
:1037B00000000000FF0000000002027C800000000A
:1037C0000040403F0000000000804040800000803A
:1037D00000000000000101000000000000000000E7
:1037E000002F000000000700070000147F147F1462
:1037F00000242A7F2A1200231308646200364955E8
:10380000225000000007000000001C2241000000C0
:1038100041221C000014083E08140008083E080855
:10382000000000A0600000080808080800006060B0
:103830000000002010080402003E5149453E0000EF
:10384000427F4000004261514946002141454B31D1
:10385000001814127F10002745454539003C4A499D
:10386000493000017109050300364949493600060F
:103870004949291E00003636000000005636000077
:1038800000081422410000141414141400004122F2
:103890001408000201510906003E4955592E007CCA
:1038A0001211127C007F49494936003E41414122B4
:1038B000007F4141221C007F49494941007F09099D
:1038C0000901003E4149497A007F0808087F00004D
:1038D000417F4100002040413F01007F0814224108
:1038E000007F40404040007F020C027F007F0408C0
:1038F000107F003E4141413E007F09090906003E1C
:103900004151215E007F0919294600464949493144
:103910000001017F0101003F4040403F001F204067
:10392000201F003F4038403F006314081463000725
:103930000870080700615149454300007F4141007C
:10394000000204081020000041417F000004020131
:1039500002040040404040400000010204000020FA
:1039600054545478007F4844443800384444442038
:1039700000384444487F00385454541800087E09E5
:1039800001020018A4A4A47C007F080404780000AD
:10399000447D4000004080847D00007F102844006A
:1039A0000000417F4000007C04180478007C08047B
:1039B000047800384444443800FC242424180018B7
:1039C000242418FC007C08040408004854545420A3
:1039D00000043F444020003C4040207C001C20402C
:1039E000201C003C4030403C004428102844001C6F
:1039F000A0A0A07C004464544C440000087F410017
:103A00000000007F00000000417F0800000804085B
:103A10001008A3AC0000000000000000000000003F
:103A20000000000000000058380000000000000006
:103A30000000000000A1A300000000000000000042
:103A400000000000000000000000182424180000FE
:103A50000000000000000000C4E300008060F807E0
:103A60004020180F08C80808281800010000FF00AF
:103A7000100C0340807F0001061800BAC30010102C
:103A8000F01F10F000808282E2928A86800040223D
:103A900015081661000040807F0000000000CAC0C9
:103AA00000202020FE2020FF202020FF202020209A
:103AB000000000007F4040474444444740404000ED
:103AC00000BDE700000000FE929292FE929292FEEC
:103AD0000000000008080484621E010001FE0204C8
:103AE00004080800B9E2004040424458C0407F400A
:103AF000C050484640400080804020180700000029
:103B00003F404040407800D5D50000FE424242FE92
:103B10000042A29E82A2C2BE0000806F080828CF89
:103B200000002FC8080828CF0000C7BF0002E2220B
:103B3000223E00809E9292F292929E8000004382EA
:103B4000423E40474444447F444454E700B6C800E2
:103B50000000FC242424FC252624FC242424040026
:103B600040308F80844C55252525554C8080800021
:103B7000CAAA001060028C00FE929292929292FE6B
:103B800000000004047E014448507F40407F5048BC
:103B9000444000C4A3001010D0FF9014E4AFA4A4CC
:103BA000A4AFE4040000040300FF00894B2A1A0EAE
:103BB0001A2A4B888000CABD0010109090909090F7
:103BC0001010FF101011161000002060203F101080
:103BD0001000030C102040F800CAD6000000242476
:103BE000242424FC222222232200000002020202BA
:103BF0000242827F0202020202020200D7D40000C7
:103C00000000F8888C8A89888888F8000000000005
:103C10000000FF44444444444444FF00000000B614
:103C2000AF004044C4444444401010FF101010F052
:103C30000000103C131014B840300E014080403F8B
:103C40000000B4FD00001088C433404848487F4855
:103C5000C848484000020100FF00020A32024282C6
:103C60007F02020200BBFA001010D0FF901000FE8D
:103C7000020202FE00000000040300FF0083601F38
:103C80000000003F40407800000000FF01010131CA
:103C900009090909897101010101FFFF8080808004
:103CA00080809681808080808080FFFF018181817B
:103CB000FD8991A1C1FD81818101FFFF808080800C
:103CC0009F888482819F80808080FF00EC3C000878
:103CD00000000020380000001C280008243D0008D7
:103CE00038000020780D00002C280008000000009B
:103CF000010203040102030406070809020406087E
:103D000000000000000000000000000000000000B3
:103D100000000000000000000000000000000000A3
:043D2000000000009F
:04000005080000ED02
:00000001FF
